{
  "contractName": "AerospaceContract",
  "abi": [
    {
      "inputs": [],
      "stateMutability": "nonpayable",
      "type": "constructor"
    },
    {
      "inputs": [
        {
          "internalType": "uint256",
          "name": "partId",
          "type": "uint256"
        },
        {
          "internalType": "string",
          "name": "aircraft_manufacture_location",
          "type": "string"
        },
        {
          "internalType": "string",
          "name": "assembly_date",
          "type": "string"
        },
        {
          "internalType": "string",
          "name": "technician_name",
          "type": "string"
        }
      ],
      "name": "setPartDetails",
      "outputs": [],
      "stateMutability": "nonpayable",
      "type": "function"
    },
    {
      "inputs": [
        {
          "internalType": "uint256",
          "name": "partid",
          "type": "uint256"
        }
      ],
      "name": "getPartDetails",
      "outputs": [
        {
          "internalType": "uint256",
          "name": "",
          "type": "uint256"
        },
        {
          "internalType": "string",
          "name": "",
          "type": "string"
        },
        {
          "internalType": "string",
          "name": "",
          "type": "string"
        },
        {
          "internalType": "string",
          "name": "",
          "type": "string"
        }
      ],
      "stateMutability": "view",
      "type": "function",
      "constant": true
    },
    {
      "inputs": [
        {
          "internalType": "uint256",
          "name": "partId",
          "type": "uint256"
        },
        {
          "internalType": "string",
          "name": "aircraft_loc",
          "type": "string"
        }
      ],
      "name": "setLocation",
      "outputs": [],
      "stateMutability": "nonpayable",
      "type": "function"
    },
    {
      "inputs": [
        {
          "internalType": "uint256",
          "name": "partId",
          "type": "uint256"
        },
        {
          "internalType": "string",
          "name": "assembly_date",
          "type": "string"
        }
      ],
      "name": "setAssemblyDate",
      "outputs": [],
      "stateMutability": "nonpayable",
      "type": "function"
    },
    {
      "inputs": [
        {
          "internalType": "uint256",
          "name": "partId",
          "type": "uint256"
        },
        {
          "internalType": "string",
          "name": "technician_name",
          "type": "string"
        }
      ],
      "name": "setTechnicianName",
      "outputs": [],
      "stateMutability": "nonpayable",
      "type": "function"
    },
    {
      "inputs": [
        {
          "internalType": "uint256",
          "name": "partId",
          "type": "uint256"
        }
      ],
      "name": "getLocation",
      "outputs": [
        {
          "internalType": "string",
          "name": "",
          "type": "string"
        }
      ],
      "stateMutability": "view",
      "type": "function",
      "constant": true
    },
    {
      "inputs": [
        {
          "internalType": "uint256",
          "name": "partId",
          "type": "uint256"
        }
      ],
      "name": "getAssemblyDate",
      "outputs": [
        {
          "internalType": "string",
          "name": "",
          "type": "string"
        }
      ],
      "stateMutability": "view",
      "type": "function",
      "constant": true
    },
    {
      "inputs": [
        {
          "internalType": "uint256",
          "name": "partId",
          "type": "uint256"
        }
      ],
      "name": "getTechnicianName",
      "outputs": [
        {
          "internalType": "string",
          "name": "",
          "type": "string"
        }
      ],
      "stateMutability": "view",
      "type": "function",
      "constant": true
    }
  ],
  "bytecode": "0x608060405234801561001057600080fd5b50610db3806100206000396000f3fe608060405234801561001057600080fd5b50600436106100885760003560e01c8063ee53096c1161005b578063ee53096c1461013c578063ef6eafb51461016c578063f457a84814610188578063ffc4a4c3146101a457610088565b80632fb71bdb1461008d5780637f7b1393146100c05780639d0c8c39146100f0578063bd52cf4914610120575b600080fd5b6100a760048036038101906100a2919061070b565b6101c0565b6040516100b794939291906107d7565b60405180910390f35b6100da60048036038101906100d5919061070b565b6103cf565b6040516100e79190610831565b60405180910390f35b61010a6004803603810190610105919061070b565b610476565b6040516101179190610831565b60405180910390f35b61013a60048036038101906101359190610988565b61051d565b005b6101566004803603810190610151919061070b565b610544565b6040516101639190610831565b60405180910390f35b61018660048036038101906101819190610988565b6105eb565b005b6101a2600480360381019061019d91906109e4565b610612565b005b6101be60048036038101906101b99190610988565b61069a565b005b600060608060606000808681526020019081526020016000206000015460008087815260200190815260200160002060010160008088815260200190815260200160002060020160008089815260200190815260200160002060030182805461022890610ace565b80601f016020809104026020016040519081016040528092919081815260200182805461025490610ace565b80156102a15780601f10610276576101008083540402835291602001916102a1565b820191906000526020600020905b81548152906001019060200180831161028457829003601f168201915b505050505092508180546102b490610ace565b80601f01602080910402602001604051908101604052809291908181526020018280546102e090610ace565b801561032d5780601f106103025761010080835404028352916020019161032d565b820191906000526020600020905b81548152906001019060200180831161031057829003601f168201915b5050505050915080805461034090610ace565b80601f016020809104026020016040519081016040528092919081815260200182805461036c90610ace565b80156103b95780601f1061038e576101008083540402835291602001916103b9565b820191906000526020600020905b81548152906001019060200180831161039c57829003601f168201915b5050505050905093509350935093509193509193565b606060008083815260200190815260200160002060010180546103f190610ace565b80601f016020809104026020016040519081016040528092919081815260200182805461041d90610ace565b801561046a5780601f1061043f5761010080835404028352916020019161046a565b820191906000526020600020905b81548152906001019060200180831161044d57829003601f168201915b50505050509050919050565b6060600080838152602001908152602001600020600201805461049890610ace565b80601f01602080910402602001604051908101604052809291908181526020018280546104c490610ace565b80156105115780601f106104e657610100808354040283529160200191610511565b820191906000526020600020905b8154815290600101906020018083116104f457829003601f168201915b50505050509050919050565b80600080848152602001908152602001600020600301908161053f9190610cab565b505050565b6060600080838152602001908152602001600020600301805461056690610ace565b80601f016020809104026020016040519081016040528092919081815260200182805461059290610ace565b80156105df5780601f106105b4576101008083540402835291602001916105df565b820191906000526020600020905b8154815290600101906020018083116105c257829003601f168201915b50505050509050919050565b80600080848152602001908152602001600020600101908161060d9190610cab565b505050565b6040518060800160405280858152602001848152602001838152602001828152506000808681526020019081526020016000206000820151816000015560208201518160010190816106649190610cab565b50604082015181600201908161067a9190610cab565b5060608201518160030190816106909190610cab565b5090505050505050565b8060008084815260200190815260200160002060020190816106bc9190610cab565b505050565b6000604051905090565b600080fd5b600080fd5b6000819050919050565b6106e8816106d5565b81146106f357600080fd5b50565b600081359050610705816106df565b92915050565b600060208284031215610721576107206106cb565b5b600061072f848285016106f6565b91505092915050565b610741816106d5565b82525050565b600081519050919050565b600082825260208201905092915050565b60005b83811015610781578082015181840152602081019050610766565b60008484015250505050565b6000601f19601f8301169050919050565b60006107a982610747565b6107b38185610752565b93506107c3818560208601610763565b6107cc8161078d565b840191505092915050565b60006080820190506107ec6000830187610738565b81810360208301526107fe818661079e565b90508181036040830152610812818561079e565b90508181036060830152610826818461079e565b905095945050505050565b6000602082019050818103600083015261084b818461079e565b905092915050565b600080fd5b600080fd5b7f4e487b7100000000000000000000000000000000000000000000000000000000600052604160045260246000fd5b6108958261078d565b810181811067ffffffffffffffff821117156108b4576108b361085d565b5b80604052505050565b60006108c76106c1565b90506108d3828261088c565b919050565b600067ffffffffffffffff8211156108f3576108f261085d565b5b6108fc8261078d565b9050602081019050919050565b82818337600083830152505050565b600061092b610926846108d8565b6108bd565b90508281526020810184848401111561094757610946610858565b5b610952848285610909565b509392505050565b600082601f83011261096f5761096e610853565b5b813561097f848260208601610918565b91505092915050565b6000806040838503121561099f5761099e6106cb565b5b60006109ad858286016106f6565b925050602083013567ffffffffffffffff8111156109ce576109cd6106d0565b5b6109da8582860161095a565b9150509250929050565b600080600080608085870312156109fe576109fd6106cb565b5b6000610a0c878288016106f6565b945050602085013567ffffffffffffffff811115610a2d57610a2c6106d0565b5b610a398782880161095a565b935050604085013567ffffffffffffffff811115610a5a57610a596106d0565b5b610a668782880161095a565b925050606085013567ffffffffffffffff811115610a8757610a866106d0565b5b610a938782880161095a565b91505092959194509250565b7f4e487b7100000000000000000000000000000000000000000000000000000000600052602260045260246000fd5b60006002820490506001821680610ae657607f821691505b602082108103610af957610af8610a9f565b5b50919050565b60008190508160005260206000209050919050565b60006020601f8301049050919050565b600082821b905092915050565b600060088302610b617fffffffffffffffffffffffffffffffffffffffffffffffffffffffffffffffff82610b24565b610b6b8683610b24565b95508019841693508086168417925050509392505050565b6000819050919050565b6000610ba8610ba3610b9e846106d5565b610b83565b6106d5565b9050919050565b6000819050919050565b610bc283610b8d565b610bd6610bce82610baf565b848454610b31565b825550505050565b600090565b610beb610bde565b610bf6818484610bb9565b505050565b5b81811015610c1a57610c0f600082610be3565b600181019050610bfc565b5050565b601f821115610c5f57610c3081610aff565b610c3984610b14565b81016020851015610c48578190505b610c5c610c5485610b14565b830182610bfb565b50505b505050565b600082821c905092915050565b6000610c8260001984600802610c64565b1980831691505092915050565b6000610c9b8383610c71565b9150826002028217905092915050565b610cb482610747565b67ffffffffffffffff811115610ccd57610ccc61085d565b5b610cd78254610ace565b610ce2828285610c1e565b600060209050601f831160018114610d155760008415610d03578287015190505b610d0d8582610c8f565b865550610d75565b601f198416610d2386610aff565b60005b82811015610d4b57848901518255600182019150602085019450602081019050610d26565b86831015610d685784890151610d64601f891682610c71565b8355505b6001600288020188555050505b50505050505056fea26469706673582212206d042c8f6591258ef729c662accad80b0286980ec09f210427965b98d3d51dbf64736f6c63430008110033",
  "immutableReferences": {},
  "source": "pragma solidity ^0.8.17;\r\n\r\ncontract AerospaceContract {\r\n    struct SubPartDetails {\r\n        uint256 partId;\r\n        string aircraft_manufacture_location;\r\n        string assembly_date;\r\n        string technician_name;\r\n    }\r\n\r\n    // make mapping for part details\r\n    mapping(uint256 => SubPartDetails) private partDetails;\r\n\r\n    constructor() {}\r\n\r\n    function setPartDetails(\r\n        uint256 partId,\r\n        string memory aircraft_manufacture_location,\r\n        string memory assembly_date,\r\n        string memory technician_name\r\n    ) public {\r\n        partDetails[partId] = SubPartDetails(\r\n            partId,\r\n            aircraft_manufacture_location,\r\n            assembly_date,\r\n            technician_name\r\n        );\r\n    }\r\n\r\n    // get partdetails\r\n    function getPartDetails(uint256 partid)\r\n        public\r\n        view\r\n        returns (\r\n            uint256,\r\n            string memory,\r\n            string memory,\r\n            string memory\r\n        )\r\n    {\r\n        return (\r\n            partDetails[partid].partId,\r\n            partDetails[partid].aircraft_manufacture_location,\r\n            partDetails[partid].assembly_date,\r\n            partDetails[partid].technician_name\r\n        );\r\n    }\r\n\r\n    function setLocation(uint256 partId, string memory aircraft_loc) public {\r\n        partDetails[partId].aircraft_manufacture_location = aircraft_loc;\r\n    }\r\n\r\n    // set assembly date\r\n    function setAssemblyDate(uint256 partId, string memory assembly_date)\r\n        public\r\n    {\r\n        partDetails[partId].assembly_date = assembly_date;\r\n    }\r\n\r\n    // set technician name\r\n    function setTechnicianName(uint256 partId, string memory technician_name)\r\n        public\r\n    {\r\n        partDetails[partId].technician_name = technician_name;\r\n    }\r\n\r\n    function getLocation(uint256 partId) public view returns (string memory) {\r\n        return partDetails[partId].aircraft_manufacture_location;\r\n    }\r\n\r\n    // get assembly date\r\n    function getAssemblyDate(uint256 partId)\r\n        public\r\n        view\r\n        returns (string memory)\r\n    {\r\n        return partDetails[partId].assembly_date;\r\n    }\r\n\r\n    // get technician name\r\n    function getTechnicianName(uint256 partId)\r\n        public\r\n        view\r\n        returns (string memory)\r\n    {\r\n        return partDetails[partId].technician_name;\r\n    }\r\n}\r\n",
  "sourcePath": "D:\\projects\\nafi\\blockchain\\aerospace\\aerospace2\\smart-contract-backend\\contracts\\AerospaceContract.sol",
  "compiler": {
    "name": "solc",
    "version": "0.8.17+commit.8df45f5f.Emscripten.clang"
  },
  "schemaVersion": "3.4.10",
  "updatedAt": "2022-09-30T14:50:14.912Z",
  "networkType": "ethereum",
  "devdoc": {
    "kind": "dev",
    "methods": {},
    "version": 1
  },
  "userdoc": {
    "kind": "user",
    "methods": {},
    "version": 1
  }
}